:100000000C9434000C9451000C9451000C94510049
:100010000C9451000C9451000C9451000C9451001C
:100020000C9451000C9451000C9451000C949900C4
:100030000C9451000C9451000C9451000C945100FC
:100040000C9451000C9451000C9451000C945100EC
:100050000C9451000C9451000C9451000C945100DC
:100060000C9451000C94510011241FBECFEFD8E026
:10007000DEBFCDBF11E0A0E0B1E0E4E5F2E002C0F8
:1000800005900D92AE30B107D9F721E0AEE0B1E0B6
:1000900001C01D92A431B207E1F70E94F2000C9456
:1000A00028010C94000080910201EEE0F1E02AE0CA
:1000B000622F0E941C018083809102010E941C011A
:1000C0009183809101010E941C0182838091010132
:1000D0000E941C019383809100010E941C01848373
:1000E000809100010E941C01958308958091000178
:1000F0008F5F80930001809100018C3338F0109263
:100100000001809101018F5F8093010180910101C5
:100110008C3338F010920101809102018F5F80933F
:10012000020180910201883110F0109202010C94BA
:1001300053001F920F920FB60F9211242F933F93EB
:100140004F935F936F937F938F939F93AF93BF93DF
:10015000EF93FF930E947600FF91EF91BF91AF91D3
:100160009F918F917F916F915F914F913F912F91CF
:100170000F900FBE0F901F90189595B1917E95B975
:1001800098B19C7F98B9E62FF0E0ED5FFE4F90812B
:100190009BB9623010F06730B9F4289A282F30E00C
:1001A0008430A0F485B12F5F3F4F41E050E001C0A3
:1001B000440F2A95EAF7842B85B98FE39FE10197D5
:1001C000F1F700C0000008952898E8CF88B12450C6
:1001D000310941E050E001C0440F2A95EAF7842B31
:1001E00088B9EBCF8AB18C6F8AB9209A84B18E61BD
:1001F00084B987B1836087B90E94530080918100E0
:100200008D608093810089E09DE3909389008093C5
:10021000880080916F00826080936F0078940EE078
:1002200011E0C0E0F80161918F018C2F0E94BD00A8
:10023000CF5FC630B9F7F3CF991B79E004C0991F9F
:10024000961708F0961B881F7A95C9F78095089530
:04025000F894FFCF50
:0E0254000A0B0500E490C0644808E00040007A
:00000001FF
