:100000000C947F000C949C000C949C000C949C001D
:100010000C949C000C949C000C949C000C949C00F0
:100020000C949C000C949C000C949C000C949C00E0
:100030000C949C000C949C000C949C000C949C00D0
:100040000C949C000C949C000C949C000C949C00C0
:100050000C949C000C949C000C949C000C949C00B0
:100060000C949C000C949C0008000000BE92244953
:10007000123EABAAAA2ABECDCCCC4C3E00000080DA
:10008000BEABAAAAAA3E00000000BF000000803F4D
:100090000000000000084178D3BB4387D1133D190D
:1000A0000E3CC3BD4282AD2B3E68EC8276BED98F3A
:1000B000E1A93E4C80EFFFBE01C4FF7F3F0000007E
:1000C00000004E414E494E495459494E46CDCCCC84
:1000D0003D0AD7233C17B7D13877CC2B329595E61C
:1000E000241FB14F0A000020410000C84200401CFC
:1000F0004620BCBE4CCA1B0E5AAEC59D74001124CE
:100100001FBECFEFD8E0DEBFCDBF11E0A0E0B1E071
:10011000E4E8F4E202C005900D92AA36B107D9F7DF
:1001200021E0AAE6B1E001C01D92AE3BB207E1F7C3
:100130000E94830A0C9440120C940000CA01B90179
:10014000905808950F931F93CF93DF93DC01362FC0
:10015000272F8A01862F972FFC01CD01B8010E941D
:10016000A30CDB01EC01C85FDE4F88818083CF01E7
:100170000196109789F71182A32FB22FAE17BF07F0
:1001800038F0832F922FDF91CF911F910F91089517
:1001900080813197ED01999191838C93DE01EECFAF
:1001A000845D9E4F2FEF3FEFFC0131832083089544
:1001B00080579E4F2FEF3FEFFC013183208308953E
:1001C000FC01E45DFE4F81E090E0208131812F3F12
:1001D0003F4F11F090E080E00895FC01E057FE4FA2
:1001E00081E090E0208131812F3F3F4F11F090E07E
:1001F00080E00895FC01E45DFE4F408151814F3F56
:10020000540741F09A01220F331F240F351F820F2C
:10021000931F089581E691E00895FC01E45DFE4F8F
:1002200020813181233631056CF42F5F3F4F3183BC
:100230002083A901440F551F240F351F820F931FE0
:100240000C9449100895FC01E45DFE4F208131813A
:100250002F3F320721F02150310931832083089547
:10026000FC01E057FE4F20813181233631057CF4BB
:100270002F5F3F4F31832083220F331F220F331F05
:10028000280F391FF90140835183628373830895D6
:10029000FC01E057FE4F208131812F3F320789F06A
:1002A000A9014150510951834083220F331F220F6E
:1002B000331F280F391FF901608171818281938179
:1002C000089560E070E0CB0108955C985D985E98B9
:1002D0005F9880FD5C9A81FD5D9A82FD5E9A83FD48
:1002E0005F9A5B9A85E38A95F1F700005B9885E356
:1002F0008A95F1F700000895CF93C82F82958F70EB
:100300000E94650185E38A95F1F700008C2F8F70BC
:10031000CF910C9465015A980E947C018FE39CE96F
:100320000197F1F700C0000008955A9A0E947C01DD
:100330008FE193E00197F1F700C00000089517B82E
:100340009FE398B98AB18C6F8AB98BB183708BB9EE
:1003500014B895B92FEF81EE94E021508040904081
:10036000E1F700C0000083E00E9465018FE39CE993
:100370000197F1F700C0000083E00E9465018FE360
:100380009CE90197F1F700C0000083E00E9465013D
:100390008FE39CE90197F1F700C0000082E00E9422
:1003A00065018FE39CE90197F1F700C0000088E246
:1003B0000E948B018FE39CE90197F1F700C00000D8
:1003C0008CE00E948B018FE39CE90197F1F700C05C
:1003D000000086E00E948B018FE39CE90197F1F712
:1003E00000C0000081E00E948B019FEF29EF80E0B8
:1003F000915020408040E1F700C0000082E00E9460
:100400008B019FEF29EF80E0915020408040E1F781
:1004100000C000000895CF93DF93EC018991811112
:1004200003C0DF91CF9108950E9495018FE193E081
:100430000197F1F700C00000F1CF81E00E948B012D
:100440002FEF89EF90E0215080409040E1F700C00D
:1004500000000895CF93DF93CDB7DEB728970FB68E
:10046000F894DEBF0FBECDBF98E0E0E0F1E0DE0122
:10047000119601900D929A95E1F770E0660F771F43
:1004800021E030E02C0F3D1F620F731FFB019081B4
:10049000890F80680E948B018FE39CE90197F1F737
:1004A00000C0000028960FB6F894DEBF0FBECDBF87
:1004B000DF91CF91089538988FEF88B980E48093C9
:1004C0007C0087E880937A008AE090917A009064BB
:1004D00090937A0090917A0096FDFCCFEFE3FFE1D4
:1004E0003197F1F700C00000815079F7089590919D
:1004F0007C00987F8770982B90937C0080917A0085
:10050000806480937A0080917A0086FDFCCF809190
:10051000830190E02091780030917900FC01EE0F8A
:10052000FF1FE358FE4F31832083019623E030E024
:10053000B9010E94A30C8093830180917D01909169
:100540007E0140917F0150918001840F951F409161
:10055000810150918201840F951FB9010E948F0C77
:10056000CB0120917B0130917C01AB01421B530BED
:100570009A012D3E5FEF35077CF02431310564F49C
:1005800020917A012F5F20937A01233058F07093E5
:100590007C0160937B01089510927A0160937B0146
:1005A00070937C0180917B0190917C0108952F9242
:1005B0003F924F925F926F927F928F929F92AF92F3
:1005C000BF92CF92DF92EF92FF920F931F93CF9340
:1005D000DF93CDB7DEB7A6970FB6F894DEBF0FBE98
:1005E000CDBF9A838983498F5A8F6B8F7C8F3EA3AF
:1005F0002DA318015701D8018D919D910D90BC91AB
:10060000A02D898B9A8BAB8BBC8BF901208131811A
:10061000428153817C018D01698D7A8D8B8D9C8DFA
:10062000E981FA8109956D8F7E8F8F8F98A320E0E5
:1006300030E040E05FE3C501B6010E94840F2B016A
:100640003C012D8D3E8D4F8D58A10E94840FD1010C
:100650002D913D914D915C910E94B80C69877A87EC
:100660008B879C87298D3A8D4B8D5C8DC301B201A0
:100670000E94B80C6D837E838F83988729893A897D
:100680004B895C89C301B2010E94840FEDA1FEA1D8
:1006900020813181428153810E94B80C9B01AC01C1
:1006A000E984FA840B851C856D817E818F81988514
:1006B000E981FA8109956D8B7E8B8F8B988F9B01D9
:1006C000AC01C301B2010E94840FD1012D913D9173
:1006D0004D915C910E94B80C6D877E878F87988BB7
:1006E00029853A854B855C85C301B2010E94840F40
:1006F000EDA1FEA120813181428153810E94B80C7D
:100700009B01AC01ED84FE840F8518896D817E818B
:100710008F819885E981FA8109956D837E838F8326
:1007200098879B01AC01C501B6010E94840FD101DD
:100730002D913D914D915C910E94B80C69A37AA3D3
:100740008BA39CA32D853E854F855889C501B60195
:100750000E94840FEDA1FEA120813181428153814D
:100760000E94B80C2B013C01A5019601698D7A8D80
:100770008B8D9C8D0E94B80CE9A0FAA00BA11CA146
:10078000A3019201E981FA81099569837A838B83B8
:100790009C8320E030E040EC50E4C501B6010E94AB
:1007A000400D6B017C0129853A854B855C85CA012A
:1007B000B9010E94B80C29893A894B895C890E9449
:1007C000B80C2B013C012D853E854F855889CA0107
:1007D000B9010E94B80C9B01AC01C301B2010E9497
:1007E000B80C29A13AA14BA15CA10E94B80CA701A9
:1007F00096010E94840F9B01AC01ADA1BEA16D9139
:100800007D918D919C910E94B80CEDA1FEA1608319
:100810007183828393832D893E894F89588DCA01C4
:10082000B9010E94B80C2D8D3E8D4F8D58A10E94AC
:10083000B80C4B015C012D813E814F815885CA0166
:10084000B9010E94B80C9B01AC01C501B4010E9422
:10085000B80C29813A814B815C810E94B80CA701B8
:1008600096010E94840F9B01AC01D1016D917D9195
:100870008D919C910E94B80CF101608371838283F9
:100880009383A6960FB6F894DEBF0FBECDBFDF915F
:10089000CF911F910F91FF90EF90DF90CF90BF907D
:1008A000AF909F908F907F906F905F904F903F9010
:1008B0002F9008954F925F926F927F928F929F92A6
:1008C000AF92BF92CF92DF92EF92FF920F931F935E
:1008D000CF93DF93CDB7DEB72C970FB6F894DEBF7A
:1008E0000FBECDBF69877A878B879C8729013A0124
:1008F0001D821E821F82188680E090E0A0E8BFE380
:1009000089839A83AB83BC83812C912C54012985E4
:100910003A854B855C85C501B4010E943B0D87FD7E
:100920001BC06D817E818F8198852C960FB6F894BF
:10093000DEBF0FBECDBFDF91CF911F910F91FF9012
:10094000EF90DF90CF90BF90AF909F908F907F906F
:100950006F905F904F900895730162018E010F5F59
:100960001F4F9E012B5F3F4FB501A4018EE990E020
:100970000E94D702A3019201C501B4010E94B80CE4
:100980004B015C01C4CF2BED3FE049E450E40E94F1
:10099000840F20E030E044E353E40E94400D0895CA
:1009A000CF92DF92EF92FF926B017C0120E030E06A
:1009B000A9010E943B0D87FF19C0C701B6019F77AF
:1009C0002BED3FE049EC50E40E94400D0E94240DC5
:1009D0002BED3FE049EC50E40E94840F9B01AC01F9
:1009E000C701B6010E94B80C6B017C012BED3FE002
:1009F00049EC50E4C701B601FF90EF90DF90CF9033
:100A00000C94300E4F925F926F927F928F929F92D2
:100A1000AF92BF92CF92DF92EF92FF922B013C01F7
:100A200069017A010E945A044B015C012BED3FE001
:100A300049EC5FE3C301B2010E94B80C0E94D004EC
:100A4000A70196010E945A046B017C019F772FEF4A
:100A500036EE4BED5EE20E943B0D87FD13C0A70111
:100A60009601C501B4010E94400DFF90EF90DF9008
:100A7000CF90BF90AF909F908F907F906F905F903E
:100A80004F90089560E070E080EC9FE7EECF4F92CA
:100A90005F926F927F928F929F92AF92BF92CF920E
:100AA000DF92EF92FF920F931F93CF93DF936B012F
:100AB0007C0129013A0120E030E0A9010E943B0DB0
:100AC00018160CF057C0C701B6010E943C0F6B010D
:100AD0007C0127E137EB41ED58E30E94400D0E9475
:100AE000B20DEB0177FF04C0CC27DD27C61BD70B67
:100AF000BE010D2E000C880B990B0E94EA0D9B0184
:100B0000AC01C701B6010E94400D4B015C0110E031
:100B100000E0C12CD12C90E8E92E9FE3F92E0C17B0
:100B20001D0799F4C701B601DF91CF911F910F9175
:100B3000FF90EF90DF90CF90BF90AF909F908F90FD
:100B40007F906F905F904F900895A3019201C7012D
:100B5000B6010E94840FA50194010E94840F9B019D
:100B6000AC01C701B6010E94B80C6B017C010F5F9C
:100B70001F4FD5CFC12CD12C80E8E82E8FEBF82E5B
:100B8000D1CF4F925F926F927F928F929F92AF924E
:100B9000BF92CF92DF92EF92FF920F931F93CF936A
:100BA000DF9300D000D0CDB7DEB72B013C01490167
:100BB0005A01AC019B01C501B4010E94B70C6B0145
:100BC0007C01B801012E000C880B990B0E94EA0DE4
:100BD0009B01AC01C701B6010E94400D6B017C0175
:100BE000A301920160E070E080E89FE30E94400D65
:100BF00069837A838B839C83A501940160E070E014
:100C000080E89FE30E94400D9B01AC0169817A81DD
:100C10008B819C810E94B80C20E030E040E05FE3D3
:100C20000E94840F4B015C0121E030E03A8329836C
:100C300029813A8120173107DCF0A7019601C5010F
:100C4000B4010E94840F0F900F900F900F90DF91CE
:100C5000CF911F910F91FF90EF90DF90CF90BF90B9
:100C6000AF909F908F907F906F905F904F9008957E
:100C700029813A81B901330F880B990B0E94EA0D43
:100C8000A70196010E94840FA30192010E94B80C53
:100C90009B01AC0160E070E080E89FE30E94400DA2
:100CA0009B01AC01C501B4010E94B80C4B015C0171
:100CB00089819A8101969A838983BACFCF92DF92F4
:100CC000EF92FF920F931F936B017C0120E030E0C5
:100CD000A9010E943B0D18167CF089E191E00E9469
:100CE000501060E070E080EC9FE71F910F91FF9043
:100CF000EF90DF90CF90089508EE13E0A7019601E2
:100D000060E070E080E89FE30E94C105EECF9B01A8
:100D10002115310509F40895B9010E94A30C582F3B
:100D2000492FC901252F342FF3CF2F923F924F9295
:100D30005F926F927F928F929F92AF92BF92CF926B
:100D4000DF92EF92FF920F931F93CF93DF9300D028
:100D500000D000D0CDB7DEB74B015C018A0179012C
:100D6000E1E0F0E0DA01ED93FC93D901ED93FC931F
:100D700020E030E0A9010E943B0D811121C0F80163
:100D800011821082E1E0F0E0D701ED93FC9326960A
:100D90000FB6F894DEBF0FBECDBFDF91CF911F918C
:100DA0000F91FF90EF90DF90CF90BF90AF909F900A
:100DB0008F907F906F905F904F903F902F9008950D
:100DC00020E030E0A901C501B4010E943B0D2224BE
:100DD0002394312C87FF03C022242A94322CD5017E
:100DE000C401BF7789839A83AB83BC8385E0C82E17
:100DF000D12CA1E0B0E0BE83AD83AD81BE81BD0149
:100E0000BB0F880B990B0E94EA0D29813A814B8117
:100E10005C810E94840F2B013C010E94F10F4B0169
:100E20005C01AC019B01C301B2010E94B70C9F772A
:100E30002DEB37E346E855E30E942F0F1816BCF15F
:100E4000B101330C880B990B0E94EA0DA5019401A6
:100E50000E94840F0E94B20DF80171836083ED81BE
:100E6000FE81D701ED93FC93D8013C9111962C9112
:100E7000A901852F942F6D817E810E94A30C5D8135
:100E80004E81009719F5832F922F6D817E810E94EC
:100E9000A30CF80171836083D7018D919C916D81C2
:100EA0007E810E94A30CF7017183608370CFB1E053
:100EB000CB1AD10829F24AE02D813E81429FF001F0
:100EC000439FF00D1124FE83ED8397CF9E838D8386
:100ED000D0CFCF93DF93EC016FE371E00E9440101D
:100EE000892B09F450C061E471E0CE010E944010EA
:100EF000892B09F448C063E471E0CE010E944010E0
:100F0000892B09F440C065E471E0CE010E944010D5
:100F1000892BE1F168E471E0CE010E944010892B39
:100F2000B9F16AE471E0CE010E944010892B81F191
:100F30006CE471E0CE010E944010892B49F166E417
:100F400071E0CE010E944010892B21F16EE471E026
:100F5000CE010E944010892BE9F060E571E0CE01DE
:100F60000E944010892BC1F062E571E0CE010E9421
:100F7000401031E020E0892B09F030E0832F922FE0
:100F8000DF91CF91089585E090E0FACF84E0FCCF27
:100F900083E0FACF82E0F8CF81E0F6CF3F924F9224
:100FA0005F926F927F928F929F92AF92BF92CF92F9
:100FB000DF92EF92FF920F931F93CF93DF93CDB702
:100FC000DEB7C153D1400FB6F894DEBF0FBECDBF20
:100FD0003C017B018FEF9FEFC35DDE4F99838883D8
:100FE000CD52D140D12CC12C10E000E0E0E23E2EE9
:100FF000F301EC0DFD1D808181112AC050E2B52E58
:10100000C35DDE4F28813981CD52D140C701800FA9
:10101000911F2F3F320709F016C1FC011082CF5CEF
:10102000DE4F0FB6F894DEBF0FBECDBFDF91CF917C
:101030001F910F91FF90EF90DF90CF90BF90AF90F6
:101040009F908F907F906F905F904F903F9008950A
:10105000282F082E000C330B205331092A3031057C
:1010600018F5D701A00FB11F6F01C618D708CD0121
:101070008E199F092191422F022E000C550B4053CF
:1010800051094A305105E0F12E32D1F18C010F5F48
:101090001F4F8E0D9F1DFC013082F1E0CF1AD10849
:1010A0003FEFC31AD30AA4CF8E32D9F264E571E0C0
:1010B000883209F49DC08932E9F5C35DDE4F88812D
:1010C0009981CD52D1404701800E911E8F3F9807E4
:1010D00091F05C01AA0CBB1CA80EB91E81E090E047
:1010E0008C0F9D1FA80EB91E64E571E0C5010E941A
:1010F0004010892B39F4CE0101960E942301D0CFF4
:101100002D93B2CFB501C4010E944910F5010190A1
:101110000020E9F73197EA19FB09E00FF11F8F0171
:101120000F5F1F4FEE0DFF1D3082CE0101960E9412
:101130002301C3CF6FE371E0853609F459C061E440
:1011400071E0803709F454C0833709F049C09181B8
:1011500068E471E0983209F44BC0C15DDE4F8883CA
:10116000CF52D140C05DDE4F1882C053D140CF5C1A
:10117000DE4F1882C153D1408A3259F491819A329C
:1011800041F49FEFC91AD90AC05DDE4F8883C0536E
:10119000D140C35DDE4F88819981CD52D140270176
:1011A000400E511E8F3F9807B9F05C01AA0CBB1C82
:1011B000A80EB91E21E030E02C0F3D1FA20EB31E79
:1011C000C5010E9469074C01CE01815D9E4F0E94BE
:1011D000690788169906FCF4BE01615D7E4F08C060
:1011E0008C3659F4918166E571E0983209F0B5CFFB
:1011F000CE0101960E940D0153CF8C3439F49181B8
:1012000068E571E0983209F0A8CFF2CF63E471E0AD
:10121000813471F3A2CFB501C2010E944910F501DA
:1012200001900020E9F73197EA19FB09E00FF11F5F
:101230008F010F5F1F4FEE0DFF1D3082CE01019613
:101240000E942301A6CF6901CC0CDD1CC20ED31E67
:10125000E1E0F0E0EC0FFD1FCE0EDF1EB6010E94B4
:101260004910F60101900020E9F73197EC19FD09CA
:10127000E00FF11F8F010F5F1F4FEE0DFF1DB082BA
:10128000CE0101960E942301BBCE8F929F92AF9216
:10129000BF92CF92DF92EF92FF920F931F93CF9363
:1012A000DF93CDB7DEB7C259D1400FB6F894DEBF99
:1012B0000FBECDBF6C018FEF9FEFCF56DE4F9983EE
:1012C0008883C159D140F12CE12C86010E0D1F1DE0
:1012D000F8018081811118C0CE0101960E94480159
:1012E000CE56DE4F0FB6F894DEBF0FBECDBFDF91F6
:1012F000CF911F910F91FF90EF90DF90CF90BF9013
:10130000AF909F908F900895282F082E000C330BDC
:10131000205331092A30310510F08E32D9F4C8013A
:101320000E943C10AB01BC01CE0101960E9430012D
:10133000F8017F01EC18FD082191822F022E000C8C
:10134000990BC0970A97A8F32E3299F38FEFE81AFA
:10135000F80ABBCF853669F4CE0101960E94480198
:101360004DE458EF6DE270E4CE0101960E94300129
:10137000EDCF803749F4CE0101960E94480140ED3F
:101380005FE069E470E4F0CF8337D9F4CE010196D1
:101390000E9448012BED3FE049E450E40E94840F95
:1013A00020E030E044E353E40E94400D0E94D0046A
:1013B00027E137EB41ED58E30E945A04AB01BC0131
:1013C000D3CF8336C9F4CE0101960E9448012BED9C
:1013D0003FE049E450E40E94840F20E030E044E321
:1013E00053E40E94400D9B01AC0160E070E084EB8F
:1013F00092E40E94B70CDACF8437B9F4CE0101969B
:101400000E9448012BED3FE049E450E40E94840F24
:1014100020E030E044E353E40E94400D27E137EB45
:1014200041ED58E30E940205C9CF8C3639F4CE0154
:1014300001960E9448010E945E06C0CF8C3469F478
:10144000CE0101960E9448010E945E0629E73DE513
:1014500043E150E40E94400DB1CF813469F4CE01E4
:1014600001960E9448014091720150917301609170
:1014700074017091750178CF8B3289F4CE01019699
:101480000E9448014B015C01CE0101960E94480177
:101490009B01AC01C501B4010E94B80C8FCF8D3205
:1014A00079F4CE0101960E9448014B015C01CE0106
:1014B00001960E944801A50194010E94B70C7ECFBD
:1014C0008A3289F4CE0101960E9448014B015C01E9
:1014D000CE0101960E9448019B01AC01C501B401F7
:1014E0000E94840F6BCF8F3209F030CFCE0101966E
:1014F0000E9448014B015C01CE0101960E94480107
:10150000A5019401A7CFCF93DF93CDB7DEB7C95420
:10151000D1090FB6F894DEBF0FBECDBF1092C10047
:101520000E949F010E945B020E941D028AE591E0D9
:101530000E940B02D12C33243A9444244A94C12CA7
:1015400000E09FE5792EF12CE12C24E9A22E21E088
:10155000B22E36EB832E31E0932E49E2642E80E0EA
:101560000E9477029C012E193F09283E4FEF340755
:101570000CF487C0293131050CF083C0D39482E08C
:101580008D1508F041C095E8E91693E0F906E0F5FD
:1015900010E321E2E21623E0F206B8F511E348E099
:1015A000E41643E0F40688F512E38FEEE81682E0D5
:1015B000F80658F513E392ECE91692E0F90628F5DF
:1015C00014E325E9E21622E0F206F8F415E349E512
:1015D000E41642E0F406C8F416E387E2E81682E077
:1015E000F80698F417E393ECE91691E0F90668F42D
:1015F00018E32DE2E21621E0F20638F419E34CE29A
:10160000E41641E0F40609F41FE583B12A968FAF92
:101610002A97011107C0482645FE36C085FD02C045
:101620001BE20FE039B01F3591F0711681F0809107
:10163000780190917901803191054CF4FC01EC57CF
:10164000FE4F108301969093790180937801C11029
:101650000AC061E080E00E942A0284E891E00E94D2
:101660000B0285E0C82E01110150CA948FE99FE05A
:101670000197F1F700C000002A964FAC2A97712E0F
:101680006ECF7C01D12CC0CF44FE07C02A969FADFF
:101690002A9794FDC7CF1DE2C4CF43FE07C02A9608
:1016A0002FAD2A9723FDBECF1AE2BBCF42FE07C063
:1016B0002A964FAD2A9742FDB5CF1FE2B2CF41FE29
:1016C00010C02A968FAD2A9781FDACCF809176010C
:1016D000909177010196909377018093760118E2BB
:1016E000A0CF83E00E947702843F914058F480911C
:1016F000760190917701019790937701809376011D
:1017000019E28FCF40FE87C02A964FAD2A9740FD41
:1017100089CF80917801909179010097C1F560910E
:1017200072017091730180917401909175019E0115
:101730002F5F3F4FAE01495B5F4F0E9495060E94AD
:101740001D028FEF91EE24E0815090402040E1F7A0
:1017500000C000004AE050E0BE016D5C7F4F29965A
:101760008EAD9FAD29970E94A2000E940B028EE4CD
:1017700091E00E940B024AE050E0BE016D5C7F4F99
:1017800089819A810E94A2000E940B024ACF209177
:10179000760130917701121613065CF4FC01EC57C8
:1017A000FE4F820F931F9F0124583140281739079D
:1017B00084F1BE016F5F7F4F84E891E00E94CE0705
:1017C000CE0101960E9445091B012C012092720155
:1017D0003092730140927401509275010E941D0273
:1017E000C201B1010E94B20DCB014AE050E0BE013E
:1017F0006D5C7F4F0E94A2000E940B021092790143
:1018000010927801E4E8F1E011928E169F06E1F75C
:1018100008CF6192C8CF89B1832581FF04C049995F
:1018200001CF1EE2FECE89B1382630FE11C04899A4
:10183000F9CE80917801909179010197FC01EC57E4
:10184000FE4F20E220839093790180937801E9CEC6
:1018500081E00E9477028436910588F4E091780156
:10186000F0917901ED57FE4F8081853619F480E7BC
:101870008083D7CE803709F04CC085E6F9CF82E06F
:101880000E9477028436910598F4E0917801F091F6
:101890007901ED57FE4F8081833711F483E6E8CF5D
:1018A000833611F484E7E4CF8437A9F583E7E0CFEA
:1018B00084E00E9477028436910578F4E091780103
:1018C000F0917901ED57FE4F80818C3611F48CE454
:1018D000CFCF8C3411F58CE6CBCF85E00E94770218
:1018E0008436910508F09ECE0E941D02E4E8F1E0E6
:1018F0001192AE16BF06E1F71092790110927801AD
:1019000082E691E00E940B0261E080E00E942A02E0
:1019100088CE15E686CE13E784CE1CE682CEAA1BBF
:10192000BB1B51E107C0AA1FBB1FA617B70710F0CA
:10193000A61BB70B881F991F5A95A9F780959095FC
:10194000BC01CD01089597FB072E16F4009407D033
:1019500077FD09D00E948F0C07FC05D03EF49095CE
:1019600081959F4F0895709561957F4F08955058C8
:10197000BB27AA270E94CF0C0C94DD0E0E94CF0E2D
:1019800038F00E94D60E20F039F49F3F19F426F467
:101990000C94CC0E0EF4E095E7FB0C949D0EE92F11
:1019A0000E94EE0E58F3BA17620773078407950773
:1019B00020F079F4A6F50C94280F0EF4E0950B2E88
:1019C000BA2FA02D0B01B90190010C01CA01A00191
:1019D0001124FF27591B99F0593F50F4503E68F1EC
:1019E0001A16F040A22F232F342F4427585FF3CF2D
:1019F000469537952795A795F0405395C9F77EF4FE
:101A00001F16BA0B620B730B840BBAF09150A1F046
:101A1000FF0FBB1F661F771F881FC2F70EC0BA0FCC
:101A2000621F731F841F48F4879577956795B79554
:101A3000F7959E3F08F0B0CF9395880F08F099274F
:101A4000EE0F9795879508950E94100F90F09F379D
:101A500048F4911116F40C94290F60E070E080E8CE
:101A60009FE3089526F01B16611D711D811D0C94C6
:101A7000A30E0C94BE0E0E94790E08F481E0089526
:101A80000E94540D0C94DD0E0E94D60E58F00E9458
:101A9000CF0E40F029F45F3F29F00C949D0E5111B8
:101AA0000C94290F0C94CC0E0E94EE0E68F399232F
:101AB000B1F3552391F3951B550BBB27AA2762174A
:101AC0007307840738F09F5F5F4F220F331F441F57
:101AD000AA1FA9F335D00E2E3AF0E0E832D091508B
:101AE0005040E695001CCAF72BD0FE2F29D0660F78
:101AF000771F881FBB1F261737074807AB07B0E8BB
:101B000009F0BB0B802DBF01FF2793585F4F3AF0C0
:101B10009E3F510578F00C949D0E0C94290F5F3F69
:101B2000E4F3983ED4F3869577956795B795F79546
:101B30009F5FC9F7880F911D9695879597F908952E
:101B4000E1E0660F771F881FBB1F621773078407CA
:101B5000BA0720F0621B730B840BBA0BEE1F88F7D9
:101B6000E09508950E94B90D6894B1110C94290F65
:101B700008950E94F60E88F09F5798F0B92F992784
:101B8000B751B0F0E1F0660F771F881F991F1AF068
:101B9000BA95C9F714C0B13091F00E94280FB1E096
:101BA00008950C94280F672F782F8827B85F39F095
:101BB000B93FCCF3869577956795B395D9F73EF401
:101BC00090958095709561957F4F8F4F9F4F0895A9
:101BD000E89409C097FB3EF49095809570956195C7
:101BE0007F4F8F4F9F4F9923A9F0F92F96E9BB277D
:101BF0009395F695879577956795B795F111F8CFF9
:101C0000FAF4BB0F11F460FF1BC06F5F7F4F8F4F63
:101C10009F4F16C0882311F096E911C0772321F059
:101C20009EE8872F762F05C0662371F096E8862FF1
:101C300070E060E02AF09A95660F771F881FDAF748
:101C4000880F9695879597F908950E94CF0E20F0FA
:101C500019F00E94D60E50F40C94CC0E0C94290F5F
:101C6000E92F0E94EE0E88F35523B1F3E7FB6217CC
:101C7000730784079507A8F189F3E92FFF278823C5
:101C80002AF03197660F771F881FDAF7952F5527AF
:101C9000442332F091505040220F331F441FD2F79B
:101CA000BB27E91BF50B621B730B840BB109B1F267
:101CB00022F4620F731F841FB11D31972AF0660F43
:101CC000771F881FBB1FEFCF9150504062F041F04B
:101CD000882332F0660F771F881F91505040C1F75C
:101CE00093950C94BE0E8695779567959F5FD9F76F
:101CF000F7CF990F0008550FAA0BE0E8FEEF161674
:101D00001706E807F907C0F012161306E407F507EF
:101D100098F0621B730B840B950B39F40A2661F063
:101D2000232B242B252B21F408950A2609F4A14006
:101D3000A6958FEF811D811D089597F99F6780E813
:101D400070E060E00895882371F4772321F09850C3
:101D5000872B762F07C0662311F499270DC0905169
:101D6000862B70E060E02AF09A95660F771F881F37
:101D7000DAF7880F9695879597F908959F3F31F088
:101D8000915020F4879577956795B795880F911DA9
:101D90009695879597F908959FEF80EC0895002414
:101DA0000A941616170618060906089500240A94C0
:101DB00012161306140605060895092E0394000C46
:101DC00011F4882352F0BB0F40F4BF2B11F460FFD5
:101DD00004C06F5F7F4F8F4F9F4F089557FD9058FE
:101DE000440F551F59F05F3F71F04795880F97FBDF
:101DF000991F61F09F3F79F0879508951216130699
:101E00001406551FF2CF4695F1DF08C016161706C7
:101E10001806991FF1CF86957105610508940895FC
:101E20000E94F60EA0F0BEE7B91788F4BB279F38D2
:101E300060F41616B11D672F782F8827985FF7CFAB
:101E4000869577956795B11D93959639C8F3089552
:101E5000E894BB2766277727CB0197F908950E945E
:101E6000790E08F48FEF089516F00C94BE0E0C94C2
:101E7000CC0E68940C949D0E0E94F60EA8F3992344
:101E8000C1F3AEF3DF93CF931F930F93FF92C92F4C
:101E9000DD2788232AF02197660F771F881FDAF73E
:101EA00020E030E040E85FEB9FE3883920F0803E9F
:101EB00038F021968F770E94B80CE8E6F0E004C075
:101EC0000E94B80CE5E9F0E00E9415108B01BE01FC
:101ED000EC01FB2E6F5771097595771F880B990BD5
:101EE0000E94EA0D28E132E741E35FE30E94970F89
:101EF000AF2D9801AE01FF900F911F91CF91DF910F
:101F00000E94CF0C0C94DD0E0E94970F0C94DD0EF6
:101F10000E94CF0E38F00E94D60E20F0952311F0CB
:101F20000C949D0E0C94CC0E11240C94290F0E943D
:101F3000EE0E70F3959FC1F3950F50E0551F629F11
:101F4000F001729FBB27F00DB11D639FAA27F00D12
:101F5000B11DAA1F649F6627B00DA11D661F829F39
:101F60002227B00DA11D621F739FB00DA11D621F1E
:101F7000839FA00D611D221F749F3327A00D611D3B
:101F8000231F849F600D211D822F762F6A2F11241D
:101F90009F5750409AF0F1F088234AF0EE0FFF1F50
:101FA000BB1F661F771F881F91505040A9F79E3FA7
:101FB000510580F00C949D0E0C94290F5F3FE4F3C3
:101FC000983ED4F3869577956795B795F795E795FD
:101FD0009F5FC1F7FE2B880F911D9695879597F906
:101FE00008950E94F60EE8F09E37E8F09639B8F4AE
:101FF0009E3848F4672F782F8827985FF9CF869509
:102000007795679593959539D0F3B62FB1706B0F8F
:10201000711D811D20F487957795679593950C9494
:10202000A30E0C94BE0E0C94290FDF93CF931F9335
:102030000F93FF92EF92DF927B018C01689406C0B0
:10204000DA2EEF010E94970FFE01E894A5912591E9
:10205000359145915591A6F3EF010E94CF0CFE01F9
:102060009701A801DA9469F7DF90EF90FF900F9144
:102070001F91CF91DF910895662777270C947B10ED
:10208000FB01DC018D91019080190110D9F3990BAE
:102090000895FB01DC0101900D920020E1F7089505
:1020A0000F931F93CF93DF93E091B801F091B901A3
:1020B0002381EC0110E000E021FD08C00FEF1FEFCD
:1020C00014C00995892B11F00FEF1FEF89916091D2
:1020D000B8017091B901DB011896ED91FC91811165
:1020E000F0CF8AE00995892B49F7C801DF91CF919C
:1020F0001F910F910895B0E0A0E0E1E8F0E10C94A9
:1021000000125C017B016115710519F0DB018D93F3
:102110009C9385010F5F1F4FF501D0818D2F90E0BB
:102120000E94CB116C01892BB9F5DD32B9F50F5F37
:102130001F4FD5011196DC91C1E05801F1E0AF1AB3
:10214000B10843E050E06AEC70E0C5010E94D41190
:10215000892B69F5680182E0C80ED11C45E050E08A
:1021600065EC70E0C6010E94D411892B21F468014E
:1021700097E0C90ED11CE114F10419F0D701CD92FA
:10218000DC9260E070E080E89FEFC111FFC060E08A
:1021900070E080E89FE7FAC05801BBCFDB3229F43A
:1021A00085010E5F1F4FF501D181C0E0C6CF43E02E
:1021B00050E062EC70E0C5010E94D411892BE9F077
:1021C000F80110E000E020E030E0A9015F01B0ED8F
:1021D0008B2E8D0E89E08815C8F19C2E689491F89D
:1021E0008C2F8870C2FF16C0811102C00F5F1F4F75
:1021F0003196D501DC91C92DE9CFE114F10429F024
:102200000E5F1F4FF7011183008360E070E080ECE8
:102210009FE7BCC0882311F001501109A5E0B0E090
:102220000E94EF119B01AC01220F331F441F551F69
:10223000280D311D411D511D283999E939074907DC
:1022400099E15907A8F2C6609C2ED2CFAEEF8A1250
:1022500006C0C3FD3CC09C2E689493F8C9CFDF7DB7
:10226000D534A9F580818D3239F4C061DF01129631
:10227000818162E070E006C0DF018B32C1F311960C
:1022800061E070E080535D01A61AB70A8A30F8F465
:10229000E0E8CE16ECE0DE065CF4B601660F771FD0
:1022A000660F771FC60ED71ECC0CDD1CC80ED11CC6
:1022B0005D01FFEFAF1ABF0A8C9180538A30A8F1FD
:1022C000C4FF03C0D194C194D1080C0D1D1DC1FFE2
:1022D00009C0E114F10431F081E0A81AB108D70176
:1022E000AD92BC92CA01B9010E94E80DC370C3301F
:1022F00009F490584B015C0120E030E0A9010E94F4
:102300003B0D882309F440C0C9EFD0E017FF05C09A
:10231000119501951109C1EED0E06E01B8E1CB1A1B
:10232000D10880E2E82EF12C0FC0D501B1CFFE011B
:1023300025913591459154910E191F09C501B4019C
:102340000E94840F4B015C01D501C4010E151F05CD
:1023500074F72497F594E794CC16DD06A9F78A2F35
:10236000880F8B2F881F8F3F49F020E030E0A901B4
:10237000C501B4010E943B0D811106C082E290E0CC
:102380009093BD018093BC01C501B401CDB7DEB708
:10239000ECE00C941C1291110C94EC11803219F0A9
:1023A00089508550C8F70895FB01DC014150504029
:1023B00088F08D9181341CF08B350CF4805E659132
:1023C00061341CF06B350CF4605E861B611171F397
:1023D000990B0895881BFCCF9927882708950E94A0
:1023E0003112A59F900DB49F900DA49F800D911D5B
:1023F000112408952F923F924F925F926F927F9295
:102400008F929F92AF92BF92CF92DF92EF92FF9204
:102410000F931F93CF93DF93CDB7DEB7CA1BDB0BB0
:102420000FB6F894DEBF0FBECDBF09942A88398855
:1024300048885F846E847D848C849B84AA84B9845C
:10244000C884DF80EE80FD800C811B81AA81B98168
:10245000CE0FD11D0FB6F894DEBF0FBECDBFED017C
:102460000895A29FB001B39FC001A39F700D811D6D
:102470001124911DB29F700D811D1124911D08958D
:04248000F894FFCFFE
:102484000000400014005400303132333435363704
:102494003839616263646566004572726F723A200E
:1024A4006C6E28782920697320756E646566696E80
:1024B400656420666F722078203C3D20302E0065D4
:1024C40000700041002A2A007300630074002F008A
:1024D4002B002D0028006C004C00456E7465723A88
:0A24E4002000456E7465723A000096
:00000001FF
